{
  "_format": "hh-sol-artifact-1",
  "contractName": "LaughPortal",
  "sourceName": "contracts/LaughPortal.sol",
  "abi": [
    {
      "inputs": [],
      "stateMutability": "payable",
      "type": "constructor"
    },
    {
      "anonymous": false,
      "inputs": [
        {
          "indexed": true,
          "internalType": "address",
          "name": "from",
          "type": "address"
        },
        {
          "indexed": false,
          "internalType": "string",
          "name": "message",
          "type": "string"
        },
        {
          "indexed": false,
          "internalType": "uint256",
          "name": "timestamp",
          "type": "uint256"
        },
        {
          "indexed": false,
          "internalType": "string",
          "name": "prize",
          "type": "string"
        }
      ],
      "name": "NewLaugh",
      "type": "event"
    },
    {
      "inputs": [],
      "name": "getAllLaughs",
      "outputs": [
        {
          "components": [
            {
              "internalType": "address",
              "name": "laugher",
              "type": "address"
            },
            {
              "internalType": "string",
              "name": "message",
              "type": "string"
            },
            {
              "internalType": "uint256",
              "name": "timestamp",
              "type": "uint256"
            },
            {
              "internalType": "string",
              "name": "prize",
              "type": "string"
            }
          ],
          "internalType": "struct LaughPortal.Laugh[]",
          "name": "",
          "type": "tuple[]"
        }
      ],
      "stateMutability": "view",
      "type": "function"
    },
    {
      "inputs": [],
      "name": "getTotalLaughs",
      "outputs": [
        {
          "internalType": "uint256",
          "name": "",
          "type": "uint256"
        }
      ],
      "stateMutability": "view",
      "type": "function"
    },
    {
      "inputs": [
        {
          "internalType": "address",
          "name": "",
          "type": "address"
        }
      ],
      "name": "lastLaughedAt",
      "outputs": [
        {
          "internalType": "uint256",
          "name": "",
          "type": "uint256"
        }
      ],
      "stateMutability": "view",
      "type": "function"
    },
    {
      "inputs": [
        {
          "internalType": "string",
          "name": "_message",
          "type": "string"
        }
      ],
      "name": "laugh",
      "outputs": [],
      "stateMutability": "nonpayable",
      "type": "function"
    }
  ],
  "bytecode": "0x60806040526200004f6040518060400160405280601481526020017f4c696665206973206120636f6e737472756374210000000000000000000000008152506200007760201b620007c81760201c565b606444426200005f9190620001c4565b6200006b919062000261565b60018190555062000308565b62000117816040516024016200008e919062000184565b6040516020818303038152906040527f41304fac000000000000000000000000000000000000000000000000000000007bffffffffffffffffffffffffffffffffffffffffffffffffffffffff19166020820180517bffffffffffffffffffffffffffffffffffffffffffffffffffffffff83818316178352505050506200011a60201b60201c565b50565b60008151905060006a636f6e736f6c652e6c6f679050602083016000808483855afa5050505050565b60006200015082620001a8565b6200015c8185620001b3565b93506200016e8185602086016200022b565b6200017981620002f7565b840191505092915050565b60006020820190508181036000830152620001a0818462000143565b905092915050565b600081519050919050565b600082825260208201905092915050565b6000620001d18262000221565b9150620001de8362000221565b9250827fffffffffffffffffffffffffffffffffffffffffffffffffffffffffffffffff0382111562000216576200021562000299565b5b828201905092915050565b6000819050919050565b60005b838110156200024b5780820151818401526020810190506200022e565b838111156200025b576000848401525b50505050565b60006200026e8262000221565b91506200027b8362000221565b9250826200028e576200028d620002c8565b5b828206905092915050565b7f4e487b7100000000000000000000000000000000000000000000000000000000600052601160045260246000fd5b7f4e487b7100000000000000000000000000000000000000000000000000000000600052601260045260246000fd5b6000601f19601f8301169050919050565b61130580620003186000396000f3fe608060405234801561001057600080fd5b506004361061004c5760003560e01c8063121524b1146100515780639225e9d31461006d578063e3084db91461009d578063ef2b7709146100bb575b600080fd5b61006b60048036038101906100669190610b0b565b6100d9565b005b61008760048036038101906100829190610ae2565b6105c4565b6040516100949190610ed7565b60405180910390f35b6100a56105dc565b6040516100b29190610ed7565b60405180910390f35b6100c36105e5565b6040516100d09190610d8e565b60405180910390f35b42610258600360003373ffffffffffffffffffffffffffffffffffffffff1673ffffffffffffffffffffffffffffffffffffffff168152602001908152602001600020546101279190610fb9565b10610167576040517f08c379a000000000000000000000000000000000000000000000000000000000815260040161015e90610e97565b60405180910390fd5b42600360003373ffffffffffffffffffffffffffffffffffffffff1673ffffffffffffffffffffffffffffffffffffffff168152602001908152602001600020819055506102296040518060400160405280600c81526020017f74696d65207374616d703a200000000000000000000000000000000000000000815250600360003373ffffffffffffffffffffffffffffffffffffffff1673ffffffffffffffffffffffffffffffffffffffff16815260200190815260200160002054610861565b600160008082825461023b9190610fb9565b925050819055506102816040518060400160405280600f81526020017f257320686173206c617567686564210000000000000000000000000000000000815250336108fd565b6000604051806020016040528060008152509050606460015442446102a69190610fb9565b6102b09190610fb9565b6102ba91906110f0565b6001819055506103016040518060400160405280600a81526020017f52616e646f6d20233a2000000000000000000000000000000000000000000000815250600154610861565b60196001541161047f5761034a6040518060400160405280600781526020017f257320776f6e2100000000000000000000000000000000000000000000000000815250336108fd565b6000655af3107a4000905047811115610398576040517f08c379a000000000000000000000000000000000000000000000000000000000815260040161038f90610e77565b60405180910390fd5b60003373ffffffffffffffffffffffffffffffffffffffff16826040516103be90610d79565b60006040518083038185875af1925050503d80600081146103fb576040519150601f19603f3d011682016040523d82523d6000602084013e610400565b606091505b5050905080610444576040517f08c379a000000000000000000000000000000000000000000000000000000000815260040161043b90610eb7565b60405180910390fd5b6040518060400160405280600a81526020017f4554482057696e6e657200000000000000000000000000000000000000000000815250925050505b600260405180608001604052803373ffffffffffffffffffffffffffffffffffffffff16815260200184815260200142815260200183815250908060018154018082558091505060019003906000526020600020906004020160009091909190915060008201518160000160006101000a81548173ffffffffffffffffffffffffffffffffffffffff021916908373ffffffffffffffffffffffffffffffffffffffff16021790555060208201518160010190805190602001906105449291906109c2565b5060408201518160020155606082015181600301908051906020019061056b9291906109c2565b5050503373ffffffffffffffffffffffffffffffffffffffff167f19bf8133640ec5a5eebb50953b96d6789d416565916427a9814c917b90065cec8342846040516105b893929190610e32565b60405180910390a25050565b60036020528060005260406000206000915090505481565b60008054905090565b60606002805480602002602001604051908101604052809291908181526020016000905b828210156107bf57838290600052602060002090600402016040518060800160405290816000820160009054906101000a900473ffffffffffffffffffffffffffffffffffffffff1673ffffffffffffffffffffffffffffffffffffffff1673ffffffffffffffffffffffffffffffffffffffff1681526020016001820180546106929061108d565b80601f01602080910402602001604051908101604052809291908181526020018280546106be9061108d565b801561070b5780601f106106e05761010080835404028352916020019161070b565b820191906000526020600020905b8154815290600101906020018083116106ee57829003601f168201915b505050505081526020016002820154815260200160038201805461072e9061108d565b80601f016020809104026020016040519081016040528092919081815260200182805461075a9061108d565b80156107a75780601f1061077c576101008083540402835291602001916107a7565b820191906000526020600020905b81548152906001019060200180831161078a57829003601f168201915b50505050508152505081526020019060010190610609565b50505050905090565b61085e816040516024016107dc9190610db0565b6040516020818303038152906040527f41304fac000000000000000000000000000000000000000000000000000000007bffffffffffffffffffffffffffffffffffffffffffffffffffffffff19166020820180517bffffffffffffffffffffffffffffffffffffffffffffffffffffffff8381831617835250505050610999565b50565b6108f98282604051602401610877929190610e02565b6040516020818303038152906040527f9710a9d0000000000000000000000000000000000000000000000000000000007bffffffffffffffffffffffffffffffffffffffffffffffffffffffff19166020820180517bffffffffffffffffffffffffffffffffffffffffffffffffffffffff8381831617835250505050610999565b5050565b6109958282604051602401610913929190610dd2565b6040516020818303038152906040527f319af333000000000000000000000000000000000000000000000000000000007bffffffffffffffffffffffffffffffffffffffffffffffffffffffff19166020820180517bffffffffffffffffffffffffffffffffffffffffffffffffffffffff8381831617835250505050610999565b5050565b60008151905060006a636f6e736f6c652e6c6f679050602083016000808483855afa5050505050565b8280546109ce9061108d565b90600052602060002090601f0160209004810192826109f05760008555610a37565b82601f10610a0957805160ff1916838001178555610a37565b82800160010185558215610a37579182015b82811115610a36578251825591602001919060010190610a1b565b5b509050610a449190610a48565b5090565b5b80821115610a61576000816000905550600101610a49565b5090565b6000610a78610a7384610f17565b610ef2565b905082815260208101848484011115610a9057600080fd5b610a9b84828561104b565b509392505050565b600081359050610ab2816112b8565b92915050565b600082601f830112610ac957600080fd5b8135610ad9848260208601610a65565b91505092915050565b600060208284031215610af457600080fd5b6000610b0284828501610aa3565b91505092915050565b600060208284031215610b1d57600080fd5b600082013567ffffffffffffffff811115610b3757600080fd5b610b4384828501610ab8565b91505092915050565b6000610b588383610cf1565b905092915050565b610b698161100f565b82525050565b610b788161100f565b82525050565b6000610b8982610f58565b610b938185610f7b565b935083602082028501610ba585610f48565b8060005b85811015610be15784840389528151610bc28582610b4c565b9450610bcd83610f6e565b925060208a01995050600181019050610ba9565b50829750879550505050505092915050565b6000610bfe82610f63565b610c088185610f97565b9350610c1881856020860161105a565b610c21816111dd565b840191505092915050565b6000610c3782610f63565b610c418185610fa8565b9350610c5181856020860161105a565b610c5a816111dd565b840191505092915050565b6000610c72603483610fa8565b9150610c7d826111ee565b604082019050919050565b6000610c95600f83610fa8565b9150610ca08261123d565b602082019050919050565b6000610cb8602783610fa8565b9150610cc382611266565b604082019050919050565b6000610cdb600083610f8c565b9150610ce6826112b5565b600082019050919050565b6000608083016000830151610d096000860182610b60565b5060208301518482036020860152610d218282610bf3565b9150506040830151610d366040860182610d5b565b5060608301518482036060860152610d4e8282610bf3565b9150508091505092915050565b610d6481611041565b82525050565b610d7381611041565b82525050565b6000610d8482610cce565b9150819050919050565b60006020820190508181036000830152610da88184610b7e565b905092915050565b60006020820190508181036000830152610dca8184610c2c565b905092915050565b60006040820190508181036000830152610dec8185610c2c565b9050610dfb6020830184610b6f565b9392505050565b60006040820190508181036000830152610e1c8185610c2c565b9050610e2b6020830184610d6a565b9392505050565b60006060820190508181036000830152610e4c8186610c2c565b9050610e5b6020830185610d6a565b8181036040830152610e6d8184610c2c565b9050949350505050565b60006020820190508181036000830152610e9081610c65565b9050919050565b60006020820190508181036000830152610eb081610c88565b9050919050565b60006020820190508181036000830152610ed081610cab565b9050919050565b6000602082019050610eec6000830184610d6a565b92915050565b6000610efc610f0d565b9050610f0882826110bf565b919050565b6000604051905090565b600067ffffffffffffffff821115610f3257610f316111ae565b5b610f3b826111dd565b9050602081019050919050565b6000819050602082019050919050565b600081519050919050565b600081519050919050565b6000602082019050919050565b600082825260208201905092915050565b600081905092915050565b600082825260208201905092915050565b600082825260208201905092915050565b6000610fc482611041565b9150610fcf83611041565b9250827fffffffffffffffffffffffffffffffffffffffffffffffffffffffffffffffff0382111561100457611003611121565b5b828201905092915050565b600061101a82611021565b9050919050565b600073ffffffffffffffffffffffffffffffffffffffff82169050919050565b6000819050919050565b82818337600083830152505050565b60005b8381101561107857808201518184015260208101905061105d565b83811115611087576000848401525b50505050565b600060028204905060018216806110a557607f821691505b602082108114156110b9576110b861117f565b5b50919050565b6110c8826111dd565b810181811067ffffffffffffffff821117156110e7576110e66111ae565b5b80604052505050565b60006110fb82611041565b915061110683611041565b92508261111657611115611150565b5b828206905092915050565b7f4e487b7100000000000000000000000000000000000000000000000000000000600052601160045260246000fd5b7f4e487b7100000000000000000000000000000000000000000000000000000000600052601260045260246000fd5b7f4e487b7100000000000000000000000000000000000000000000000000000000600052602260045260246000fd5b7f4e487b7100000000000000000000000000000000000000000000000000000000600052604160045260246000fd5b6000601f19601f8301169050919050565b7f547279696e6720746f207769746864726177206d6f7265206d6f6e657920746860008201527f616e2074686520636f6e7472616374206861732e000000000000000000000000602082015250565b7f57616974203130206d696e757465730000000000000000000000000000000000600082015250565b7f4661696c656420746f207769746864726177206d6f6e65792066726f6d20636f60008201527f6e74726163742e00000000000000000000000000000000000000000000000000602082015250565b50565b6112c18161100f565b81146112cc57600080fd5b5056fea26469706673582212203d94a903f3801b26a577efc382951a3765503e1c33decbe2b713cd28ea95606b64736f6c63430008040033",
  "linkReferences": {},
  "deployedLinkReferences": {}
}